{
  "_format": "hh-sol-artifact-1",
  "contractName": "LotteryPortal",
  "sourceName": "contracts/LotteryPortal.sol",
  "abi": [
    {
      "inputs": [],
      "stateMutability": "payable",
      "type": "constructor"
    },
    {
      "anonymous": false,
      "inputs": [
        {
          "indexed": true,
          "internalType": "address",
          "name": "from",
          "type": "address"
        },
        {
          "indexed": false,
          "internalType": "uint256",
          "name": "timestamp",
          "type": "uint256"
        },
        {
          "indexed": false,
          "internalType": "string",
          "name": "message",
          "type": "string"
        }
      ],
      "name": "TicketBought",
      "type": "event"
    },
    {
      "inputs": [
        {
          "internalType": "string",
          "name": "_message",
          "type": "string"
        }
      ],
      "name": "buyTicket",
      "outputs": [],
      "stateMutability": "nonpayable",
      "type": "function"
    },
    {
      "inputs": [],
      "name": "getAllTickets",
      "outputs": [
        {
          "components": [
            {
              "internalType": "address",
              "name": "owner",
              "type": "address"
            },
            {
              "internalType": "string",
              "name": "message",
              "type": "string"
            },
            {
              "internalType": "uint256",
              "name": "timestamp",
              "type": "uint256"
            }
          ],
          "internalType": "struct LotteryPortal.Ticket[]",
          "name": "",
          "type": "tuple[]"
        }
      ],
      "stateMutability": "view",
      "type": "function"
    },
    {
      "inputs": [],
      "name": "getTotalTickets",
      "outputs": [
        {
          "internalType": "uint256",
          "name": "",
          "type": "uint256"
        }
      ],
      "stateMutability": "view",
      "type": "function"
    }
  ],
  "bytecode": "0x608060405262000033604051806060016040528060238152602001620012b0602391396200005b60201b620005451760201c565b60644442620000439190620001a8565b6200004f919062000245565b600181905550620002ec565b620000fb8160405160240162000072919062000168565b6040516020818303038152906040527f41304fac000000000000000000000000000000000000000000000000000000007bffffffffffffffffffffffffffffffffffffffffffffffffffffffff19166020820180517bffffffffffffffffffffffffffffffffffffffffffffffffffffffff8381831617835250505050620000fe60201b60201c565b50565b60008151905060006a636f6e736f6c652e6c6f679050602083016000808483855afa5050505050565b600062000134826200018c565b62000140818562000197565b9350620001528185602086016200020f565b6200015d81620002db565b840191505092915050565b6000602082019050818103600083015262000184818462000127565b905092915050565b600081519050919050565b600082825260208201905092915050565b6000620001b58262000205565b9150620001c28362000205565b9250827fffffffffffffffffffffffffffffffffffffffffffffffffffffffffffffffff03821115620001fa57620001f96200027d565b5b828201905092915050565b6000819050919050565b60005b838110156200022f57808201518184015260208101905062000212565b838111156200023f576000848401525b50505050565b6000620002528262000205565b91506200025f8362000205565b925082620002725762000271620002ac565b5b828206905092915050565b7f4e487b7100000000000000000000000000000000000000000000000000000000600052601160045260246000fd5b7f4e487b7100000000000000000000000000000000000000000000000000000000600052601260045260246000fd5b6000601f19601f8301169050919050565b610fb480620002fc6000396000f3fe608060405234801561001057600080fd5b50600436106100415760003560e01c806303e96fe31461004657806306e8337f14610064578063fa30b25114610082575b600080fd5b61004e61009e565b60405161005b9190610a90565b60405180910390f35b61006c6101ef565b6040516100799190610b74565b60405180910390f35b61009c6004803603810190610097919061084a565b61021d565b005b60606002805480602002602001604051908101604052809291908181526020016000905b828210156101e657838290600052602060002090600302016040518060600160405290816000820160009054906101000a900473ffffffffffffffffffffffffffffffffffffffff1673ffffffffffffffffffffffffffffffffffffffff1673ffffffffffffffffffffffffffffffffffffffff16815260200160018201805461014b90610d5a565b80601f016020809104026020016040519081016040528092919081815260200182805461017790610d5a565b80156101c45780601f10610199576101008083540402835291602001916101c4565b820191906000526020600020905b8154815290600101906020018083116101a757829003601f168201915b50505050508152602001600282015481525050815260200190600101906100c2565b50505050905090565b6000610215604051806060016040528060228152602001610f5d602291396000546105de565b600054905090565b6064600154424461022e9190610c86565b6102389190610c86565b6102429190610dbd565b6001819055506102896040518060400160405280601681526020017f52616e646f6d20232067656e6572617465643a202564000000000000000000008152506001546105de565b60018054116103ce576102d16040518060400160405280600781526020017f257320776f6e21000000000000000000000000000000000000000000000000008152503361067a565b6000655af3107a400090504781111561031f576040517f08c379a000000000000000000000000000000000000000000000000000000000815260040161031690610b34565b60405180910390fd5b60003373ffffffffffffffffffffffffffffffffffffffff168260405161034590610a7b565b60006040518083038185875af1925050503d8060008114610382576040519150601f19603f3d011682016040523d82523d6000602084013e610387565b606091505b50509050806103cb576040517f08c379a00000000000000000000000000000000000000000000000000000000081526004016103c290610b54565b60405180910390fd5b50505b60016000808282546103e09190610c86565b925050819055506104266040518060400160405280601f81526020017f25732068617320626f756768742061206c6f7474657279207469636b657421008152503361067a565b600260405180606001604052803373ffffffffffffffffffffffffffffffffffffffff16815260200183815260200142815250908060018154018082558091505060019003906000526020600020906003020160009091909190915060008201518160000160006101000a81548173ffffffffffffffffffffffffffffffffffffffff021916908373ffffffffffffffffffffffffffffffffffffffff16021790555060208201518160010190805190602001906104e592919061073f565b506040820151816002015550503373ffffffffffffffffffffffffffffffffffffffff167fd39aa0e9cb505f55a10f83f76afd7256b5d77d9d4414231cb8d250f187d9b25f428360405161053a929190610b8f565b60405180910390a250565b6105db816040516024016105599190610ab2565b6040516020818303038152906040527f41304fac000000000000000000000000000000000000000000000000000000007bffffffffffffffffffffffffffffffffffffffffffffffffffffffff19166020820180517bffffffffffffffffffffffffffffffffffffffffffffffffffffffff8381831617835250505050610716565b50565b61067682826040516024016105f4929190610b04565b6040516020818303038152906040527f9710a9d0000000000000000000000000000000000000000000000000000000007bffffffffffffffffffffffffffffffffffffffffffffffffffffffff19166020820180517bffffffffffffffffffffffffffffffffffffffffffffffffffffffff8381831617835250505050610716565b5050565b6107128282604051602401610690929190610ad4565b6040516020818303038152906040527f319af333000000000000000000000000000000000000000000000000000000007bffffffffffffffffffffffffffffffffffffffffffffffffffffffff19166020820180517bffffffffffffffffffffffffffffffffffffffffffffffffffffffff8381831617835250505050610716565b5050565b60008151905060006a636f6e736f6c652e6c6f679050602083016000808483855afa5050505050565b82805461074b90610d5a565b90600052602060002090601f01602090048101928261076d57600085556107b4565b82601f1061078657805160ff19168380011785556107b4565b828001600101855582156107b4579182015b828111156107b3578251825591602001919060010190610798565b5b5090506107c191906107c5565b5090565b5b808211156107de5760008160009055506001016107c6565b5090565b60006107f56107f084610be4565b610bbf565b90508281526020810184848401111561080d57600080fd5b610818848285610d18565b509392505050565b600082601f83011261083157600080fd5b81356108418482602086016107e2565b91505092915050565b60006020828403121561085c57600080fd5b600082013567ffffffffffffffff81111561087657600080fd5b61088284828501610820565b91505092915050565b60006108978383610a0d565b905092915050565b6108a881610cdc565b82525050565b6108b781610cdc565b82525050565b60006108c882610c25565b6108d28185610c48565b9350836020820285016108e485610c15565b8060005b858110156109205784840389528151610901858261088b565b945061090c83610c3b565b925060208a019950506001810190506108e8565b50829750879550505050505092915050565b600061093d82610c30565b6109478185610c64565b9350610957818560208601610d27565b61096081610eaa565b840191505092915050565b600061097682610c30565b6109808185610c75565b9350610990818560208601610d27565b61099981610eaa565b840191505092915050565b60006109b1603483610c75565b91506109bc82610ebb565b604082019050919050565b60006109d4602783610c75565b91506109df82610f0a565b604082019050919050565b60006109f7600083610c59565b9150610a0282610f59565b600082019050919050565b6000606083016000830151610a25600086018261089f565b5060208301518482036020860152610a3d8282610932565b9150506040830151610a526040860182610a5d565b508091505092915050565b610a6681610d0e565b82525050565b610a7581610d0e565b82525050565b6000610a86826109ea565b9150819050919050565b60006020820190508181036000830152610aaa81846108bd565b905092915050565b60006020820190508181036000830152610acc818461096b565b905092915050565b60006040820190508181036000830152610aee818561096b565b9050610afd60208301846108ae565b9392505050565b60006040820190508181036000830152610b1e818561096b565b9050610b2d6020830184610a6c565b9392505050565b60006020820190508181036000830152610b4d816109a4565b9050919050565b60006020820190508181036000830152610b6d816109c7565b9050919050565b6000602082019050610b896000830184610a6c565b92915050565b6000604082019050610ba46000830185610a6c565b8181036020830152610bb6818461096b565b90509392505050565b6000610bc9610bda565b9050610bd58282610d8c565b919050565b6000604051905090565b600067ffffffffffffffff821115610bff57610bfe610e7b565b5b610c0882610eaa565b9050602081019050919050565b6000819050602082019050919050565b600081519050919050565b600081519050919050565b6000602082019050919050565b600082825260208201905092915050565b600081905092915050565b600082825260208201905092915050565b600082825260208201905092915050565b6000610c9182610d0e565b9150610c9c83610d0e565b9250827fffffffffffffffffffffffffffffffffffffffffffffffffffffffffffffffff03821115610cd157610cd0610dee565b5b828201905092915050565b6000610ce782610cee565b9050919050565b600073ffffffffffffffffffffffffffffffffffffffff82169050919050565b6000819050919050565b82818337600083830152505050565b60005b83811015610d45578082015181840152602081019050610d2a565b83811115610d54576000848401525b50505050565b60006002820490506001821680610d7257607f821691505b60208210811415610d8657610d85610e4c565b5b50919050565b610d9582610eaa565b810181811067ffffffffffffffff82111715610db457610db3610e7b565b5b80604052505050565b6000610dc882610d0e565b9150610dd383610d0e565b925082610de357610de2610e1d565b5b828206905092915050565b7f4e487b7100000000000000000000000000000000000000000000000000000000600052601160045260246000fd5b7f4e487b7100000000000000000000000000000000000000000000000000000000600052601260045260246000fd5b7f4e487b7100000000000000000000000000000000000000000000000000000000600052602260045260246000fd5b7f4e487b7100000000000000000000000000000000000000000000000000000000600052604160045260246000fd5b6000601f19601f8301169050919050565b7f547279696e6720746f207769746864726177206d6f7265206d6f6e657920746860008201527f616e2074686520636f6e7472616374206861732e000000000000000000000000602082015250565b7f4661696c656420746f207769746864726177206d6f6e65792066726f6d20636f60008201527f6e74726163742e00000000000000000000000000000000000000000000000000602082015250565b5056fe2564206c6f7474657279207469636b6574732068617665206265656e20736f6c6421a2646970667358221220570def6da439eac7f31844b79b81cbba896c0f99fd856708c82f5a30462f1c9964736f6c634300080400335468697320636f6e747261637420697320756e64657220636f6e737472756374696f6e",
  "linkReferences": {},
  "deployedLinkReferences": {}
}