{
  "_format": "hh-sol-artifact-1",
  "contractName": "LotteryPortal",
  "sourceName": "contracts/LotteryPortal.sol",
  "abi": [
    {
      "inputs": [],
      "stateMutability": "payable",
      "type": "constructor"
    },
    {
      "anonymous": false,
      "inputs": [
        {
          "indexed": true,
          "internalType": "address",
          "name": "from",
          "type": "address"
        },
        {
          "indexed": false,
          "internalType": "uint256",
          "name": "timestamp",
          "type": "uint256"
        },
        {
          "indexed": false,
          "internalType": "string",
          "name": "message",
          "type": "string"
        }
      ],
      "name": "TicketBought",
      "type": "event"
    },
    {
      "inputs": [
        {
          "internalType": "string",
          "name": "_message",
          "type": "string"
        }
      ],
      "name": "buyTicket",
      "outputs": [],
      "stateMutability": "nonpayable",
      "type": "function"
    },
    {
      "inputs": [],
      "name": "getAllTickets",
      "outputs": [
        {
          "components": [
            {
              "internalType": "address",
              "name": "owner",
              "type": "address"
            },
            {
              "internalType": "string",
              "name": "message",
              "type": "string"
            },
            {
              "internalType": "uint256",
              "name": "timestamp",
              "type": "uint256"
            }
          ],
          "internalType": "struct LotteryPortal.Ticket[]",
          "name": "",
          "type": "tuple[]"
        }
      ],
      "stateMutability": "view",
      "type": "function"
    },
    {
      "inputs": [],
      "name": "getTotalTickets",
      "outputs": [
        {
          "internalType": "uint256",
          "name": "",
          "type": "uint256"
        }
      ],
      "stateMutability": "view",
      "type": "function"
    }
  ],
  "bytecode": "0x608060405262000033604051806060016040528060238152602001620012b1602391396200005b60201b620005461760201c565b60644442620000439190620001a8565b6200004f919062000245565b600181905550620002ec565b620000fb8160405160240162000072919062000168565b6040516020818303038152906040527f41304fac000000000000000000000000000000000000000000000000000000007bffffffffffffffffffffffffffffffffffffffffffffffffffffffff19166020820180517bffffffffffffffffffffffffffffffffffffffffffffffffffffffff8381831617835250505050620000fe60201b60201c565b50565b60008151905060006a636f6e736f6c652e6c6f679050602083016000808483855afa5050505050565b600062000134826200018c565b62000140818562000197565b9350620001528185602086016200020f565b6200015d81620002db565b840191505092915050565b6000602082019050818103600083015262000184818462000127565b905092915050565b600081519050919050565b600082825260208201905092915050565b6000620001b58262000205565b9150620001c28362000205565b9250827fffffffffffffffffffffffffffffffffffffffffffffffffffffffffffffffff03821115620001fa57620001f96200027d565b5b828201905092915050565b6000819050919050565b60005b838110156200022f57808201518184015260208101905062000212565b838111156200023f576000848401525b50505050565b6000620002528262000205565b91506200025f8362000205565b925082620002725762000271620002ac565b5b828206905092915050565b7f4e487b7100000000000000000000000000000000000000000000000000000000600052601160045260246000fd5b7f4e487b7100000000000000000000000000000000000000000000000000000000600052601260045260246000fd5b6000601f19601f8301169050919050565b610fb580620002fc6000396000f3fe608060405234801561001057600080fd5b50600436106100415760003560e01c806303e96fe31461004657806306e8337f14610064578063fa30b25114610082575b600080fd5b61004e61009e565b60405161005b9190610a91565b60405180910390f35b61006c6101ef565b6040516100799190610b75565b60405180910390f35b61009c6004803603810190610097919061084b565b61021d565b005b60606002805480602002602001604051908101604052809291908181526020016000905b828210156101e657838290600052602060002090600302016040518060600160405290816000820160009054906101000a900473ffffffffffffffffffffffffffffffffffffffff1673ffffffffffffffffffffffffffffffffffffffff1673ffffffffffffffffffffffffffffffffffffffff16815260200160018201805461014b90610d5b565b80601f016020809104026020016040519081016040528092919081815260200182805461017790610d5b565b80156101c45780601f10610199576101008083540402835291602001916101c4565b820191906000526020600020905b8154815290600101906020018083116101a757829003601f168201915b50505050508152602001600282015481525050815260200190600101906100c2565b50505050905090565b6000610215604051806060016040528060228152602001610f5e602291396000546105df565b600054905090565b6064600154424461022e9190610c87565b6102389190610c87565b6102429190610dbe565b6001819055506102896040518060400160405280601681526020017f52616e646f6d20232067656e6572617465643a202564000000000000000000008152506001546105df565b6032600154116103cf576102d26040518060400160405280600781526020017f257320776f6e21000000000000000000000000000000000000000000000000008152503361067b565b6000655af3107a4000905047811115610320576040517f08c379a000000000000000000000000000000000000000000000000000000000815260040161031790610b35565b60405180910390fd5b60003373ffffffffffffffffffffffffffffffffffffffff168260405161034690610a7c565b60006040518083038185875af1925050503d8060008114610383576040519150601f19603f3d011682016040523d82523d6000602084013e610388565b606091505b50509050806103cc576040517f08c379a00000000000000000000000000000000000000000000000000000000081526004016103c390610b55565b60405180910390fd5b50505b60016000808282546103e19190610c87565b925050819055506104276040518060400160405280601f81526020017f25732068617320626f756768742061206c6f7474657279207469636b657421008152503361067b565b600260405180606001604052803373ffffffffffffffffffffffffffffffffffffffff16815260200183815260200142815250908060018154018082558091505060019003906000526020600020906003020160009091909190915060008201518160000160006101000a81548173ffffffffffffffffffffffffffffffffffffffff021916908373ffffffffffffffffffffffffffffffffffffffff16021790555060208201518160010190805190602001906104e6929190610740565b506040820151816002015550503373ffffffffffffffffffffffffffffffffffffffff167fd39aa0e9cb505f55a10f83f76afd7256b5d77d9d4414231cb8d250f187d9b25f428360405161053b929190610b90565b60405180910390a250565b6105dc8160405160240161055a9190610ab3565b6040516020818303038152906040527f41304fac000000000000000000000000000000000000000000000000000000007bffffffffffffffffffffffffffffffffffffffffffffffffffffffff19166020820180517bffffffffffffffffffffffffffffffffffffffffffffffffffffffff8381831617835250505050610717565b50565b61067782826040516024016105f5929190610b05565b6040516020818303038152906040527f9710a9d0000000000000000000000000000000000000000000000000000000007bffffffffffffffffffffffffffffffffffffffffffffffffffffffff19166020820180517bffffffffffffffffffffffffffffffffffffffffffffffffffffffff8381831617835250505050610717565b5050565b6107138282604051602401610691929190610ad5565b6040516020818303038152906040527f319af333000000000000000000000000000000000000000000000000000000007bffffffffffffffffffffffffffffffffffffffffffffffffffffffff19166020820180517bffffffffffffffffffffffffffffffffffffffffffffffffffffffff8381831617835250505050610717565b5050565b60008151905060006a636f6e736f6c652e6c6f679050602083016000808483855afa5050505050565b82805461074c90610d5b565b90600052602060002090601f01602090048101928261076e57600085556107b5565b82601f1061078757805160ff19168380011785556107b5565b828001600101855582156107b5579182015b828111156107b4578251825591602001919060010190610799565b5b5090506107c291906107c6565b5090565b5b808211156107df5760008160009055506001016107c7565b5090565b60006107f66107f184610be5565b610bc0565b90508281526020810184848401111561080e57600080fd5b610819848285610d19565b509392505050565b600082601f83011261083257600080fd5b81356108428482602086016107e3565b91505092915050565b60006020828403121561085d57600080fd5b600082013567ffffffffffffffff81111561087757600080fd5b61088384828501610821565b91505092915050565b60006108988383610a0e565b905092915050565b6108a981610cdd565b82525050565b6108b881610cdd565b82525050565b60006108c982610c26565b6108d38185610c49565b9350836020820285016108e585610c16565b8060005b858110156109215784840389528151610902858261088c565b945061090d83610c3c565b925060208a019950506001810190506108e9565b50829750879550505050505092915050565b600061093e82610c31565b6109488185610c65565b9350610958818560208601610d28565b61096181610eab565b840191505092915050565b600061097782610c31565b6109818185610c76565b9350610991818560208601610d28565b61099a81610eab565b840191505092915050565b60006109b2603483610c76565b91506109bd82610ebc565b604082019050919050565b60006109d5602783610c76565b91506109e082610f0b565b604082019050919050565b60006109f8600083610c5a565b9150610a0382610f5a565b600082019050919050565b6000606083016000830151610a2660008601826108a0565b5060208301518482036020860152610a3e8282610933565b9150506040830151610a536040860182610a5e565b508091505092915050565b610a6781610d0f565b82525050565b610a7681610d0f565b82525050565b6000610a87826109eb565b9150819050919050565b60006020820190508181036000830152610aab81846108be565b905092915050565b60006020820190508181036000830152610acd818461096c565b905092915050565b60006040820190508181036000830152610aef818561096c565b9050610afe60208301846108af565b9392505050565b60006040820190508181036000830152610b1f818561096c565b9050610b2e6020830184610a6d565b9392505050565b60006020820190508181036000830152610b4e816109a5565b9050919050565b60006020820190508181036000830152610b6e816109c8565b9050919050565b6000602082019050610b8a6000830184610a6d565b92915050565b6000604082019050610ba56000830185610a6d565b8181036020830152610bb7818461096c565b90509392505050565b6000610bca610bdb565b9050610bd68282610d8d565b919050565b6000604051905090565b600067ffffffffffffffff821115610c0057610bff610e7c565b5b610c0982610eab565b9050602081019050919050565b6000819050602082019050919050565b600081519050919050565b600081519050919050565b6000602082019050919050565b600082825260208201905092915050565b600081905092915050565b600082825260208201905092915050565b600082825260208201905092915050565b6000610c9282610d0f565b9150610c9d83610d0f565b9250827fffffffffffffffffffffffffffffffffffffffffffffffffffffffffffffffff03821115610cd257610cd1610def565b5b828201905092915050565b6000610ce882610cef565b9050919050565b600073ffffffffffffffffffffffffffffffffffffffff82169050919050565b6000819050919050565b82818337600083830152505050565b60005b83811015610d46578082015181840152602081019050610d2b565b83811115610d55576000848401525b50505050565b60006002820490506001821680610d7357607f821691505b60208210811415610d8757610d86610e4d565b5b50919050565b610d9682610eab565b810181811067ffffffffffffffff82111715610db557610db4610e7c565b5b80604052505050565b6000610dc982610d0f565b9150610dd483610d0f565b925082610de457610de3610e1e565b5b828206905092915050565b7f4e487b7100000000000000000000000000000000000000000000000000000000600052601160045260246000fd5b7f4e487b7100000000000000000000000000000000000000000000000000000000600052601260045260246000fd5b7f4e487b7100000000000000000000000000000000000000000000000000000000600052602260045260246000fd5b7f4e487b7100000000000000000000000000000000000000000000000000000000600052604160045260246000fd5b6000601f19601f8301169050919050565b7f547279696e6720746f207769746864726177206d6f7265206d6f6e657920746860008201527f616e2074686520636f6e7472616374206861732e000000000000000000000000602082015250565b7f4661696c656420746f207769746864726177206d6f6e65792066726f6d20636f60008201527f6e74726163742e00000000000000000000000000000000000000000000000000602082015250565b5056fe2564206c6f7474657279207469636b6574732068617665206265656e20736f6c6421a264697066735822122038b9ab486e66556ed322e8f8adaafde73f7137a73ecaf7ba2f618cc9ef47591d64736f6c634300080400335468697320636f6e747261637420697320756e64657220636f6e737472756374696f6e",
  "linkReferences": {},
  "deployedLinkReferences": {}
}